{
  "contractName": "Election",
  "abi": [
    {
      "inputs": [],
      "payable": false,
      "stateMutability": "nonpayable",
      "type": "constructor"
    },
    {
      "anonymous": false,
      "inputs": [
        {
          "indexed": false,
          "internalType": "uint256",
          "name": "candidateId",
          "type": "uint256"
        },
        {
          "indexed": false,
          "internalType": "string",
          "name": "name",
          "type": "string"
        }
      ],
      "name": "CandidateAdded",
      "type": "event"
    },
    {
      "anonymous": false,
      "inputs": [
        {
          "indexed": true,
          "internalType": "address",
          "name": "voter",
          "type": "address"
        },
        {
          "indexed": false,
          "internalType": "uint256",
          "name": "candidateId",
          "type": "uint256"
        },
        {
          "indexed": false,
          "internalType": "uint256",
          "name": "encryptedVote",
          "type": "uint256"
        }
      ],
      "name": "EncryptedVoteSubmitted",
      "type": "event"
    },
    {
      "constant": true,
      "inputs": [
        {
          "internalType": "uint256",
          "name": "",
          "type": "uint256"
        }
      ],
      "name": "candidates",
      "outputs": [
        {
          "internalType": "uint256",
          "name": "id",
          "type": "uint256"
        },
        {
          "internalType": "string",
          "name": "name",
          "type": "string"
        },
        {
          "internalType": "uint256",
          "name": "voteCount",
          "type": "uint256"
        }
      ],
      "payable": false,
      "stateMutability": "view",
      "type": "function"
    },
    {
      "constant": true,
      "inputs": [],
      "name": "candidatesCount",
      "outputs": [
        {
          "internalType": "uint256",
          "name": "",
          "type": "uint256"
        }
      ],
      "payable": false,
      "stateMutability": "view",
      "type": "function"
    },
    {
      "constant": true,
      "inputs": [
        {
          "internalType": "uint256",
          "name": "",
          "type": "uint256"
        },
        {
          "internalType": "uint256",
          "name": "",
          "type": "uint256"
        }
      ],
      "name": "encryptedVotes",
      "outputs": [
        {
          "internalType": "uint256",
          "name": "",
          "type": "uint256"
        }
      ],
      "payable": false,
      "stateMutability": "view",
      "type": "function"
    },
    {
      "constant": true,
      "inputs": [
        {
          "internalType": "address",
          "name": "",
          "type": "address"
        }
      ],
      "name": "voters",
      "outputs": [
        {
          "internalType": "bool",
          "name": "",
          "type": "bool"
        }
      ],
      "payable": false,
      "stateMutability": "view",
      "type": "function"
    },
    {
      "constant": false,
      "inputs": [
        {
          "internalType": "uint256",
          "name": "_candidateId",
          "type": "uint256"
        },
        {
          "internalType": "uint256",
          "name": "_encryptedVote",
          "type": "uint256"
        }
      ],
      "name": "submitEncryptedVote",
      "outputs": [],
      "payable": false,
      "stateMutability": "nonpayable",
      "type": "function"
    },
    {
      "constant": true,
      "inputs": [
        {
          "internalType": "uint256",
          "name": "_candidateId",
          "type": "uint256"
        }
      ],
      "name": "getEncryptedVotes",
      "outputs": [
        {
          "internalType": "uint256[]",
          "name": "",
          "type": "uint256[]"
        }
      ],
      "payable": false,
      "stateMutability": "view",
      "type": "function"
    }
  ],
  "bytecode": "0x608060405234801561001057600080fd5b506100556040518060400160405280600b81526020017f43616e646964617465203100000000000000000000000000000000000000000081525061009e60201b60201c565b6100996040518060400160405280600b81526020017f43616e646964617465203200000000000000000000000000000000000000000081525061009e60201b60201c565b610265565b6002600081548092919060010191905055506040518060600160405280600254815260200182815260200160008152506001600060025481526020019081526020016000206000820151816000015560208201518160010190805190602001906101099291906101c0565b50604082015181600201559050507fe83b2a43e7e82d975c8a0a6d2f045153c869e111136a34d1889ab7b598e396a3600254826040518083815260200180602001828103825283818151815260200191508051906020019080838360005b83811015610182578082015181840152602081019050610167565b50505050905090810190601f1680156101af5780820380516001836020036101000a031916815260200191505b50935050505060405180910390a150565b828054600181600116156101000203166002900490600052602060002090601f016020900481019282601f1061020157805160ff191683800117855561022f565b8280016001018555821561022f579182015b8281111561022e578251825591602001919060010190610213565b5b50905061023c9190610240565b5090565b61026291905b8082111561025e576000816000905550600101610246565b5090565b90565b610708806102746000396000f3fe608060405234801561001057600080fd5b50600436106100625760003560e01c80630f010058146100675780632d35a8a2146100ea5780633477ee2e14610108578063a2506c8f146101bd578063a3ec138d146101f5578063d54171f914610251575b600080fd5b6100936004803603602081101561007d57600080fd5b810190808035906020019092919050505061029d565b6040518080602001828103825283818151815260200191508051906020019060200280838360005b838110156100d65780820151818401526020810190506100bb565b505050509050019250505060405180910390f35b6100f261038c565b6040518082815260200191505060405180910390f35b6101346004803603602081101561011e57600080fd5b8101908080359060200190929190505050610392565b6040518084815260200180602001838152602001828103825284818151815260200191508051906020019080838360005b83811015610180578082015181840152602081019050610165565b50505050905090810190601f1680156101ad5780820380516001836020036101000a031916815260200191505b5094505050505060405180910390f35b6101f3600480360360408110156101d357600080fd5b810190808035906020019092919080359060200190929190505050610454565b005b6102376004803603602081101561020b57600080fd5b81019080803573ffffffffffffffffffffffffffffffffffffffff169060200190929190505050610685565b604051808215151515815260200191505060405180910390f35b6102876004803603604081101561026757600080fd5b8101908080359060200190929190803590602001909291905050506106a5565b6040518082815260200191505060405180910390f35b60606000821180156102b157506002548211155b610323576040517f08c379a00000000000000000000000000000000000000000000000000000000081526004018080602001828103825260158152602001807f496e76616c69642063616e6469646174652049442e000000000000000000000081525060200191505060405180910390fd5b6003600083815260200190815260200160002080548060200260200160405190810160405280929190818152602001828054801561038057602002820191906000526020600020905b81548152602001906001019080831161036c575b50505050509050919050565b60025481565b6001602052806000526040600020600091509050806000015490806001018054600181600116156101000203166002900480601f0160208091040260200160405190810160405280929190818152602001828054600181600116156101000203166002900480156104445780601f1061041957610100808354040283529160200191610444565b820191906000526020600020905b81548152906001019060200180831161042757829003601f168201915b5050505050908060020154905083565b6000803373ffffffffffffffffffffffffffffffffffffffff1673ffffffffffffffffffffffffffffffffffffffff16815260200190815260200160002060009054906101000a900460ff1615610513576040517f08c379a00000000000000000000000000000000000000000000000000000000081526004018080602001828103825260178152602001807f596f75206861766520616c726561647920766f7465642e00000000000000000081525060200191505060405180910390fd5b60008211801561052557506002548211155b610597576040517f08c379a00000000000000000000000000000000000000000000000000000000081526004018080602001828103825260158152602001807f496e76616c69642063616e6469646174652049442e000000000000000000000081525060200191505060405180910390fd5b60016000803373ffffffffffffffffffffffffffffffffffffffff1673ffffffffffffffffffffffffffffffffffffffff16815260200190815260200160002060006101000a81548160ff021916908315150217905550600360008381526020019081526020016000208190806001815401808255809150509060018203906000526020600020016000909192909190915055503373ffffffffffffffffffffffffffffffffffffffff167f3534a39a5575e102693f526caf51511e1d6e69d35f4dd64861b167a654394c428383604051808381526020018281526020019250505060405180910390a25050565b60006020528060005260406000206000915054906101000a900460ff1681565b600360205281600052604060002081815481106106be57fe5b9060005260206000200160009150915050548156fea265627a7a723158200db3d24c35e9c4fbef8e5dc6b79227e710dab4146b84a6f813929eec92c2a7db64736f6c63430005100032",
  "source": "pragma solidity ^0.5.0;\r\n\r\ncontract Election {\r\n    struct Candidate {\r\n        uint id;\r\n        string name;\r\n        uint voteCount;\r\n    }\r\n\r\n    mapping(address => bool) public voters; // Store accounts that have voted\r\n    mapping(uint => Candidate) public candidates; // Candidates mapping\r\n    uint public candidatesCount; // Store the count of candidates\r\n\r\n    // New mapping to store encrypted votes\r\n    mapping(uint => uint256[]) public encryptedVotes; // Maps candidate ID to encrypted votes\r\n\r\n    event CandidateAdded(uint candidateId, string name);\r\n    event EncryptedVoteSubmitted(address indexed voter, uint candidateId, uint256 encryptedVote);\r\n\r\n    constructor() public {\r\n        addCandidate(\"Candidate 1\");\r\n        addCandidate(\"Candidate 2\");\r\n    }\r\n\r\n    function addCandidate(string memory _name) private {\r\n        candidatesCount++;\r\n        candidates[candidatesCount] = Candidate(candidatesCount, _name, 0);\r\n        emit CandidateAdded(candidatesCount, _name);\r\n    }\r\n\r\n    function submitEncryptedVote(uint _candidateId, uint256 _encryptedVote) public {\r\n        require(!voters[msg.sender], \"You have already voted.\"); // Ensure unique votes\r\n        require(_candidateId > 0 && _candidateId <= candidatesCount, \"Invalid candidate ID.\");\r\n\r\n        voters[msg.sender] = true; // Record that the voter has voted\r\n        encryptedVotes[_candidateId].push(_encryptedVote); // Store the encrypted vote\r\n\r\n        emit EncryptedVoteSubmitted(msg.sender, _candidateId, _encryptedVote);\r\n    }\r\n\r\n    // Function to retrieve encrypted votes for a specific candidate\r\n    function getEncryptedVotes(uint _candidateId) public view returns (uint256[] memory) {\r\n        require(_candidateId > 0 && _candidateId <= candidatesCount, \"Invalid candidate ID.\");\r\n        return encryptedVotes[_candidateId];\r\n    }\r\n}\r\n",
  "sourcePath": "C:\\Users\\Jordan\\Documents\\GitHub\\CSC199-DAPP\\election\\contracts\\Election.sol",
  "compiler": {
    "name": "solc",
    "version": "0.5.16+commit.9c3226ce.Emscripten.clang"
  },
  "schemaVersion": "3.4.16",
  "updatedAt": "2024-10-29T06:24:47.460Z",
  "networkType": "ethereum",
  "devdoc": {
    "methods": {}
  },
  "userdoc": {
    "methods": {}
  }
}